{
  "contractName": "Lottery",
  "abi": [
    {
      "inputs": [],
      "stateMutability": "nonpayable",
      "type": "constructor"
    },
    {
      "inputs": [],
      "name": "manager",
      "outputs": [
        {
          "internalType": "address",
          "name": "",
          "type": "address"
        }
      ],
      "stateMutability": "view",
      "type": "function",
      "constant": true
    },
    {
      "inputs": [
        {
          "internalType": "uint256",
          "name": "",
          "type": "uint256"
        }
      ],
      "name": "players",
      "outputs": [
        {
          "internalType": "address",
          "name": "",
          "type": "address"
        }
      ],
      "stateMutability": "view",
      "type": "function",
      "constant": true
    },
    {
      "inputs": [],
      "name": "enter",
      "outputs": [],
      "stateMutability": "payable",
      "type": "function",
      "payable": true
    },
    {
      "inputs": [],
      "name": "pickWinner",
      "outputs": [],
      "stateMutability": "nonpayable",
      "type": "function"
    },
    {
      "inputs": [],
      "name": "getPlayers",
      "outputs": [
        {
          "internalType": "address[]",
          "name": "",
          "type": "address[]"
        }
      ],
      "stateMutability": "view",
      "type": "function",
      "constant": true
    }
  ],
  "bytecode": "0x608060405234801561001057600080fd5b50336000806101000a81548173ffffffffffffffffffffffffffffffffffffffff021916908373ffffffffffffffffffffffffffffffffffffffff160217905550610a66806100606000396000f3fe608060405260043610610067576000357c010000000000000000000000000000000000000000000000000000000090048063481c6a751461006c5780635d495aea146100975780638b5b9ccc146100ae578063e97dcb62146100d9578063f71d96cb146100e3575b600080fd5b34801561007857600080fd5b50610081610120565b60405161008e919061081a565b60405180910390f35b3480156100a357600080fd5b506100ac610144565b005b3480156100ba57600080fd5b506100c3610340565b6040516100d09190610835565b60405180910390f35b6100e16103ce565b005b3480156100ef57600080fd5b5061010a600480360381019061010591906105b5565b610483565b604051610117919061081a565b60405180910390f35b60008054906101000a900473ffffffffffffffffffffffffffffffffffffffff1681565b6001151560008054906101000a900473ffffffffffffffffffffffffffffffffffffffff1673ffffffffffffffffffffffffffffffffffffffff163373ffffffffffffffffffffffffffffffffffffffff16141515146101d9576040517f08c379a00000000000000000000000000000000000000000000000000000000081526004016101d090610877565b60405180910390fd5b60006001805490506101e96104c2565b6101f39190610999565b90506001818154811061022f577f4e487b7100000000000000000000000000000000000000000000000000000000600052603260045260246000fd5b9060005260206000200160009054906101000a900473ffffffffffffffffffffffffffffffffffffffff1673ffffffffffffffffffffffffffffffffffffffff166108fc3073ffffffffffffffffffffffffffffffffffffffff16319081150290604051600060405180830381858888f193505050501580156102b6573d6000803e3d6000fd5b50600067ffffffffffffffff8111156102f8577f4e487b7100000000000000000000000000000000000000000000000000000000600052604160045260246000fd5b6040519080825280602002602001820160405280156103265781602001602082028036833780820191505090505b506001908051906020019061033c9291906104f9565b5050565b606060018054806020026020016040519081016040528092919081815260200182805480156103c457602002820191906000526020600020905b8160009054906101000a900473ffffffffffffffffffffffffffffffffffffffff1673ffffffffffffffffffffffffffffffffffffffff168152602001906001019080831161037a575b5050505050905090565b60011515662386f26fc10000341115151461041e576040517f08c379a000000000000000000000000000000000000000000000000000000000815260040161041590610857565b60405180910390fd5b6001339080600181540180825580915050600190039060005260206000200160009091909190916101000a81548173ffffffffffffffffffffffffffffffffffffffff021916908373ffffffffffffffffffffffffffffffffffffffff160217905550565b6001818154811061049357600080fd5b906000526020600020016000915054906101000a900473ffffffffffffffffffffffffffffffffffffffff1681565b6000444260016040516020016104da939291906107e1565b6040516020818303038152906040528051906020012060019004905090565b828054828255906000526020600020908101928215610572579160200282015b828111156105715782518260006101000a81548173ffffffffffffffffffffffffffffffffffffffff021916908373ffffffffffffffffffffffffffffffffffffffff16021790555091602001919060010190610519565b5b50905061057f9190610583565b5090565b5b8082111561059c576000816000905550600101610584565b5090565b6000813590506105af81610a19565b92915050565b6000602082840312156105c757600080fd5b60006105d5848285016105a0565b91505092915050565b60006105ea838361060e565b60208301905092915050565b6000610602838361062c565b60208301905092915050565b61061781610939565b82525050565b61062681610939565b82525050565b61063581610939565b82525050565b6000610646826108bc565b61065081856108ec565b935061065b83610897565b8060005b8381101561068c57815161067388826105de565b975061067e836108d2565b92505060018101905061065f565b5085935050505092915050565b60006106a4826108c7565b6106ae81856108fd565b93506106b9836108a7565b8060005b838110156106f1576106ce826109f9565b6106d888826105f6565b97506106e3836108df565b9250506001810190506106bd565b5085935050505092915050565b600061070b602783610908565b91507f4d696e696d756d207472616e73616374696f6e2076616c756520697320302e3060008301527f31204574686572000000000000000000000000000000000000000000000000006020830152604082019050919050565b6000610771602983610908565b91507f596f75206e65656420746f2062652061206d616e6167657220746f207069636b60008301527f20612077696e6e657200000000000000000000000000000000000000000000006020830152604082019050919050565b6107db6107d68261096b565b61098f565b82525050565b60006107ed82866107ca565b6020820191506107fd82856107ca565b60208201915061080d8284610699565b9150819050949350505050565b600060208201905061082f600083018461061d565b92915050565b6000602082019050818103600083015261084f818461063b565b905092915050565b60006020820190508181036000830152610870816106fe565b9050919050565b6000602082019050818103600083015261089081610764565b9050919050565b6000819050602082019050919050565b60008190508160005260206000209050919050565b600081519050919050565b600081549050919050565b6000602082019050919050565b6000600182019050919050565b600082825260208201905092915050565b600081905092915050565b600082825260208201905092915050565b600073ffffffffffffffffffffffffffffffffffffffff82169050919050565b60006109448261094b565b9050919050565b600073ffffffffffffffffffffffffffffffffffffffff82169050919050565b6000819050919050565b600061098861098383610a0c565b610919565b9050919050565b6000819050919050565b60006109a48261096b565b91506109af8361096b565b9250826109bf576109be6109ca565b5b828206905092915050565b7f4e487b7100000000000000000000000000000000000000000000000000000000600052601260045260246000fd5b6000610a058254610975565b9050919050565b6000600182049050919050565b610a228161096b565b8114610a2d57600080fd5b5056fea2646970667358221220eecdc604a324c666c4dedc942472d1d3696d4a9c172c92a3545d0bb192c034c464736f6c63430008000033",
  "immutableReferences": {},
  "source": "// SPDX-License-Identifier: GPL-3.0\r\n\r\npragma solidity ^0.8.0;\r\n\r\ncontract Lottery {\r\n    address public manager;\r\n    address[] public players;\r\n    \r\n    constructor() {\r\n        manager = msg.sender;\r\n    }\r\n    \r\n    function enter() public payable{\r\n        require(msg.value > .01 ether == true,\"Minimum transaction value is 0.01 Ether\");\r\n        players.push(msg.sender);\r\n    }\r\n    \r\n    function random() private view returns (uint){\r\n        return uint(keccak256(abi.encodePacked(block.difficulty,block.timestamp,players)));\r\n    }\r\n    \r\n    function pickWinner() public restricted{\r\n        uint index = random() % players.length;\r\n        payable(players[index]).transfer(address(this).balance);\r\n        players = new address[](0);\r\n    }\r\n    \r\n    modifier restricted(){\r\n        require(msg.sender == manager == true,\"You need to be a manager to pick a winner\");\r\n        _;\r\n    }\r\n    \r\n    function getPlayers() public view returns(address[] memory){\r\n        return players;\r\n    }\r\n    \r\n}\r\n",
  "sourcePath": "D:/SagarWorkspace/EthereumCourse/luckywinner/contracts/Lottery.sol",
  "compiler": {
    "name": "solc",
    "version": "0.8.0+commit.c7dfd78e.Emscripten.clang"
  },
  "schemaVersion": "3.2.3",
  "updatedAt": "2021-08-24T15:08:40.327Z",
  "networkType": "ethereum",
  "devdoc": {
    "kind": "dev",
    "methods": {},
    "version": 1
  },
  "userdoc": {
    "kind": "user",
    "methods": {},
    "version": 1
  }
}